18:56:41.517667 IP (tos 0x0, ttl 64, id 59303, offset 0, flags [DF], proto ICMP (1), length 84)
    198.18.207.254 > 198.18.192.1: ICMP echo request, id 8024, seq 1, length 64
	0x0000:  4500 0054 e7a7 4000 4001 36dc c612 cffe  E..T..@.@.6.....
	0x0010:  c612 c001 0800 2f5c 1f58 0001 d98a d765  ....../\.X.....e
	0x0020:  0000 0000 05e6 0700 0000 0000 6f6c 6120  ............ola.
	0x0030:  4753 5820 776f 726c 6421 486f 6c61 2047  GSX.world!Hola.G
	0x0040:  5358 2077 6f72 6c64 2148 6f6c 6120 4753  SX.world!Hola.GS
	0x0050:  5820 776f                                X.wo
18:56:41.517734 IP (tos 0x0, ttl 64, id 34253, offset 0, flags [none], proto ICMP (1), length 84)
    198.18.192.1 > 198.18.207.254: ICMP echo reply, id 8024, seq 1, length 64
	0x0000:  4500 0054 85cd 0000 4001 d8b6 c612 c001  E..T....@.......
	0x0010:  c612 cffe 0000 375c 1f58 0001 d98a d765  ......7\.X.....e
	0x0020:  0000 0000 05e6 0700 0000 0000 6f6c 6120  ............ola.
	0x0030:  4753 5820 776f 726c 6421 486f 6c61 2047  GSX.world!Hola.G
	0x0040:  5358 2077 6f72 6c64 2148 6f6c 6120 4753  SX.world!Hola.GS
	0x0050:  5820 776f                                X.wo
18:56:42.526121 IP (tos 0x0, ttl 64, id 59475, offset 0, flags [DF], proto ICMP (1), length 84)
    198.18.207.254 > 198.18.192.1: ICMP echo request, id 8024, seq 2, length 64
	0x0000:  4500 0054 e853 4000 4001 3630 c612 cffe  E..T.S@.@.60....
	0x0010:  c612 c001 0800 2e3a 1f58 0002 da8a d765  .......:.X.....e
	0x0020:  0000 0000 0507 0800 0000 0000 6f6c 6120  ............ola.
	0x0030:  4753 5820 776f 726c 6421 486f 6c61 2047  GSX.world!Hola.G
	0x0040:  5358 2077 6f72 6c64 2148 6f6c 6120 4753  SX.world!Hola.GS
	0x0050:  5820 776f                                X.wo
18:56:42.526136 IP (tos 0x0, ttl 64, id 34257, offset 0, flags [none], proto ICMP (1), length 84)
    198.18.192.1 > 198.18.207.254: ICMP echo reply, id 8024, seq 2, length 64
	0x0000:  4500 0054 85d1 0000 4001 d8b2 c612 c001  E..T....@.......
	0x0010:  c612 cffe 0000 363a 1f58 0002 da8a d765  ......6:.X.....e
	0x0020:  0000 0000 0507 0800 0000 0000 6f6c 6120  ............ola.
	0x0030:  4753 5820 776f 726c 6421 486f 6c61 2047  GSX.world!Hola.G
	0x0040:  5358 2077 6f72 6c64 2148 6f6c 6120 4753  SX.world!Hola.GS
	0x0050:  5820 776f                                X.wo
18:56:43.556900 IP (tos 0x0, ttl 64, id 59651, offset 0, flags [DF], proto ICMP (1), length 84)
    198.18.207.254 > 198.18.192.1: ICMP echo request, id 8024, seq 3, length 64
	0x0000:  4500 0054 e903 4000 4001 3580 c612 cffe  E..T..@.@.5.....
	0x0010:  c612 c001 0800 f8c0 1f58 0003 db8a d765  .........X.....e
	0x0020:  0000 0000 397f 0800 0000 0000 6f6c 6120  ....9.......ola.
	0x0030:  4753 5820 776f 726c 6421 486f 6c61 2047  GSX.world!Hola.G
	0x0040:  5358 2077 6f72 6c64 2148 6f6c 6120 4753  SX.world!Hola.GS
	0x0050:  5820 776f                                X.wo
18:56:43.556915 IP (tos 0x0, ttl 64, id 34323, offset 0, flags [none], proto ICMP (1), length 84)
    198.18.192.1 > 198.18.207.254: ICMP echo reply, id 8024, seq 3, length 64
	0x0000:  4500 0054 8613 0000 4001 d870 c612 c001  E..T....@..p....
	0x0010:  c612 cffe 0000 00c1 1f58 0003 db8a d765  .........X.....e
	0x0020:  0000 0000 397f 0800 0000 0000 6f6c 6120  ....9.......ola.
	0x0030:  4753 5820 776f 726c 6421 486f 6c61 2047  GSX.world!Hola.G
	0x0040:  5358 2077 6f72 6c64 2148 6f6c 6120 4753  SX.world!Hola.GS
	0x0050:  5820 776f                                X.wo
18:56:44.574250 IP (tos 0x0, ttl 64, id 59876, offset 0, flags [DF], proto ICMP (1), length 84)
    198.18.207.254 > 198.18.192.1: ICMP echo request, id 8024, seq 4, length 64
	0x0000:  4500 0054 e9e4 4000 4001 349f c612 cffe  E..T..@.@.4.....
	0x0010:  c612 c001 0800 e47c 1f58 0004 dc8a d765  .......|.X.....e
	0x0020:  0000 0000 4cc2 0800 0000 0000 6f6c 6120  ....L.......ola.
	0x0030:  4753 5820 776f 726c 6421 486f 6c61 2047  GSX.world!Hola.G
	0x0040:  5358 2077 6f72 6c64 2148 6f6c 6120 4753  SX.world!Hola.GS
	0x0050:  5820 776f                                X.wo
18:56:44.574265 IP (tos 0x0, ttl 64, id 34326, offset 0, flags [none], proto ICMP (1), lengt